:020000040000FA
:060000006FEF02F0120098
:020006000000F8
:080008008B809490949694887B
:10001000949A210EC66E9E96C78CC79E1200EDD88C
:10002000140E146F0F0E156F000E08D1140E0F0171
:10003000141918E10F0E151915E1100EE66E040ED5
:10004000E66E0F0EE66E00CFE6FF01CFE6FF02CFB1
:10005000E6FF03CFE6FF0AD8006E070EE15E005010
:10006000100EF0D8E3D8EF501200000CD5D8030ED4
:10007000C96E9EA6FED7EED8FC0EDB50C96E9EA6BA
:10008000FED7E8D8FB0EDB50C96E9EA6FED7C9503E
:10009000DF6E9E96F80EDBCFF3FFDB06F350000910
:1000A00018E0C96A9EA6FED7D950F90FE96EFF0E77
:1000B000DA20EA6EEE50ED10ECE0F90EDBCFE9FF4E
:1000C000DB2AFA0EDBCFEAFF01E3DB2AC9CFEFFF21
:1000D000E0D78B80010EDB50C66E000E006E020E64
:1000E000E15C02E2E16AE552E16E0050A7D085D8FA
:1000F000BAD8000EA3D0B2D80F0198D8FE0EDBCF2D
:10010000EFFF140E141904E10F0E151901E10BD8BD
:10011000000E94D0040E0F01141902E10F0E1519F0
:1001200001E001D8000C9AD8030EE126020EC6CFDA
:10013000DBFF210EC66E8B90060EC96E9EA6FED703
:1001400089D88B808B90020EC96E9EA6FED782D86E
:1001500001CFC9FF9EA6FED77DD800CFC9FF9EA6BE
:10016000FED778D814CF00F015CF01F0040E005E52
:100170000F0E015A010E00C0DBFFDBCF00F0005074
:1001800061D8010EDBCFF3FFDB06F350000908E076
:100190000F014CD8EF50C96E9EA6FED75BD8F1D7A1
:1001A0008B800F0160D8020EDB50C66E09D80009A3
:1001B000FDE1030EE15C02E2E16AE552E16E3ED050
:1001C0002BD8050EC96E9EA6FED744D8C96A9EA636
:1001D000FED740D88B80010EDB50C66ED9CFE9FF29
:1001E000DACFEAFFEF50010B006E020EE15C02E293
:1001F000E16AE552E16E005021D030D8FB0EDBCF32
:1002000000FFFC0EDBCF01FFFD0EDBCF02FFFE0E79
:10021000DBCF03FF0F01120021D8020EE126010EF1
:10022000C6CFDBFF210EC66E8B90120014CFE9FF04
:1002300015CFEAFF142B000E15231200E552E7CF6D
:10024000D9FF12000F010027000E01230223032310
:1002500033EF01F0C950DF6E9E961200D9CFE6FF52
:10026000E1CFD9FF1200040E146F0F0E156F1200AC
:10027000D9CFE6FFE1CFD9FF180EE126640EF36E69
:10028000040EF3CFDBFF610EF36E050EF3CFDBFF41
:100290006E0EF36E060EF3CFDBFF690EF36E070EE4
:1002A000F3CFDBFF650EF36E080EF3CFDBFF6C0EB2
:1002B000F36E090EF3CFDBFFD9500A0FE96EDACFE8
:1002C000EAFFEE6AEE6AEE6AEE6A0E0EDB6A0F0E67
:1002D000DB6A100EDB6A110EDB6A120EDB6A130E8C
:1002E000DB6A140EDB6A150EDB6A160EDB6A170E6C
:1002F000DB6A98968F8604EC00F0E66AE66AE66AA6
:10030000E66A77EC00F0E552E552E552E552DE6A26
:10031000DD6ADECF00F0DDCF01F0026AD890025036
:10032000000A06E6000E005C800E0158000E02581E
:1003300009E2E66A7BEC00F0E552DF2A010E01E3F8
:10034000DB2AE7D78AEC00F0E66AE66AE66AE66A44
:1003500077EC00F0E552E552E552E552DE6ADD6ADF
:10036000DECF00F0DDCF01F00A0E005C000E015878
:1003700015E2D950040F006EDACF01F0DE500024F0
:10038000E96EDD500120EA6EEF50E66E7BEC00F086
:10039000E552DF2A010E01E3DB2AE2D78AEC00F006
:1003A0000000E66AE66AE66AE66A0FEC00F0E552EB
:1003B000E552E552E552DE6ADD6ADECF00F0DDCFC0
:1003C00001F00A0E005C000E015816E216EC00F077
:1003D000E66ED9500E0F006EDACF01F0DE50002429
:1003E000E96EDD500120EA6EE552E750EF6EDF2A3C
:1003F000010E01E3DB2AE1D735EC00F08F76FED762
:10040000180EE15C02E2E16AE552E16EE552E7CFE7
:04041000D9FF1200FE
:0C041400060EF66E000EF76E000EF86E7D
:100420000F010900F5501B6F0900F5501C6F03E127
:100430001B6701D03DD00900F550166F0900F5503B
:10044000176F0900F550186F09000900F550E96EA3
:100450000900F550EA6E090009000900F550196F0E
:100460000900F5501A6F09000900F6CF1DFFF7CFFC
:100470001EFFF8CF1FFF16CFF6FF17CFF7FF18CFDD
:10048000F8FF0F01195302E11A5307E00900F55074
:10049000EE6E1907F8E21A07F9D71DCFF6FF1ECF47
:1004A000F7FF1FCFF8FF0F011B07000E1C5BBFD724
:0204B000120038
:0E04B200800EF36E00EE00F00E0E07D8600E06
:1004C000F36E0FEE00F00F0E01D81200EA6002D0BA
:0E04D000EE6AFCD7F350E9601200EE6AFCD72A
:0204DE001DEE11
:1004E00000F02DEE00F0F86A049C0AEC02F07DECBE
:0A04F00002F038EC01F0FBD7120017
:0204FA001200EE
:020000040001F9
:01FFF800A068
:01FFFA00C541
:01FFFD00F70C
:00000001FF
